{
  "address": "0xe7f1725E7734CE288F8367e1Bb143E90bb3F0512",
  "abi": [
    {
      "inputs": [
        {
          "internalType": "address",
          "name": "priceFeedAddress",
          "type": "address"
        }
      ],
      "stateMutability": "nonpayable",
      "type": "constructor"
    },
    {
      "inputs": [],
      "name": "notOwner",
      "type": "error"
    },
    {
      "stateMutability": "payable",
      "type": "fallback"
    },
    {
      "inputs": [],
      "name": "MINIMUM_USD",
      "outputs": [
        {
          "internalType": "uint256",
          "name": "",
          "type": "uint256"
        }
      ],
      "stateMutability": "view",
      "type": "function"
    },
    {
      "inputs": [],
      "name": "fund",
      "outputs": [],
      "stateMutability": "payable",
      "type": "function"
    },
    {
      "inputs": [],
      "name": "i_owner",
      "outputs": [
        {
          "internalType": "address",
          "name": "",
          "type": "address"
        }
      ],
      "stateMutability": "view",
      "type": "function"
    },
    {
      "inputs": [],
      "name": "priceFeed",
      "outputs": [
        {
          "internalType": "contract AggregatorV3Interface",
          "name": "",
          "type": "address"
        }
      ],
      "stateMutability": "view",
      "type": "function"
    },
    {
      "inputs": [],
      "name": "withdraw",
      "outputs": [],
      "stateMutability": "nonpayable",
      "type": "function"
    },
    {
      "stateMutability": "payable",
      "type": "receive"
    }
  ],
  "transactionHash": "0x78969c7c5551e00046486cc463a0c76a3eb929b276e7cdb126c0f943cfa95e95",
  "args": [
    "0x5FbDB2315678afecb367f032d93F642f64180aa3"
  ],
  "numDeployments": 1,
  "solcInputHash": "77112780710b5f17f5e351db898d936f",
  "bytecode": "0x60a060405234801561001057600080fd5b50604051610f15380380610f1583398181016040528101906100329190610113565b3373ffffffffffffffffffffffffffffffffffffffff1660808173ffffffffffffffffffffffffffffffffffffffff1660601b8152505080600260006101000a81548173ffffffffffffffffffffffffffffffffffffffff021916908373ffffffffffffffffffffffffffffffffffffffff16021790555050610140565b600080fd5b600073ffffffffffffffffffffffffffffffffffffffff82169050919050565b60006100e0826100b5565b9050919050565b6100f0816100d5565b81146100fb57600080fd5b50565b60008151905061010d816100e7565b92915050565b600060208284031215610129576101286100b0565b5b6000610137848285016100fe565b91505092915050565b60805160601c610db06101656000396000818161023401526105680152610db06000f3fe60806040526004361061004e5760003560e01c80633ccfd60b146100675780636b69a5921461007e578063741bef1a146100a9578063b60d4288146100d4578063dba6335f146100de5761005d565b3661005d5761005b610109565b005b610065610109565b005b34801561007357600080fd5b5061007c610232565b005b34801561008a57600080fd5b50610093610533565b6040516100a09190610723565b60405180910390f35b3480156100b557600080fd5b506100be610540565b6040516100cb91906107bd565b60405180910390f35b6100dc610109565b005b3480156100ea57600080fd5b506100f3610566565b60405161010091906107f9565b60405180910390f35b6802b5e3af16b1880000610148600260009054906101000a900473ffffffffffffffffffffffffffffffffffffffff163461058a90919063ffffffff16565b1015610189576040517f08c379a000000000000000000000000000000000000000000000000000000000815260040161018090610871565b60405180910390fd5b6000339080600181540180825580915050600190039060005260206000200160009091909190916101000a81548173ffffffffffffffffffffffffffffffffffffffff021916908373ffffffffffffffffffffffffffffffffffffffff16021790555034600160003373ffffffffffffffffffffffffffffffffffffffff1673ffffffffffffffffffffffffffffffffffffffff16815260200190815260200160002081905550565b7f000000000000000000000000000000000000000000000000000000000000000073ffffffffffffffffffffffffffffffffffffffff163373ffffffffffffffffffffffffffffffffffffffff16146102b7576040517f251c9d6300000000000000000000000000000000000000000000000000000000815260040160405180910390fd5b60005b6000805490508110156103625760008082815481106102dc576102db610891565b5b9060005260206000200160009054906101000a900473ffffffffffffffffffffffffffffffffffffffff1690506000600160008373ffffffffffffffffffffffffffffffffffffffff1673ffffffffffffffffffffffffffffffffffffffff1681526020019081526020016000208190555050808061035a906108ef565b9150506102ba565b50600067ffffffffffffffff81111561037e5761037d610938565b5b6040519080825280602002602001820160405280156103ac5781602001602082028036833780820191505090505b50600090805190602001906103c2929190610663565b503373ffffffffffffffffffffffffffffffffffffffff166108fc479081150290604051600060405180830381858888f19350505050158015610409573d6000803e3d6000fd5b5060003373ffffffffffffffffffffffffffffffffffffffff166108fc479081150290604051600060405180830381858888f19350505050905080610483576040517f08c379a000000000000000000000000000000000000000000000000000000000815260040161047a906109b3565b60405180910390fd5b60003373ffffffffffffffffffffffffffffffffffffffff16476040516104a990610a04565b60006040518083038185875af1925050503d80600081146104e6576040519150601f19603f3d011682016040523d82523d6000602084013e6104eb565b606091505b505090508061052f576040517f08c379a000000000000000000000000000000000000000000000000000000000815260040161052690610a65565b60405180910390fd5b5050565b6802b5e3af16b188000081565b600260009054906101000a900473ffffffffffffffffffffffffffffffffffffffff1681565b7f000000000000000000000000000000000000000000000000000000000000000081565b600080610596836105c3565b905060006402540be40085836105ac9190610a85565b6105b69190610b0e565b9050809250505092915050565b6000808273ffffffffffffffffffffffffffffffffffffffff1663feaf968c6040518163ffffffff1660e01b815260040160a06040518083038186803b15801561060c57600080fd5b505afa158015610620573d6000803e3d6000fd5b505050506040513d601f19601f820116820180604052508101906106449190610be8565b5050509150506402540be4008161065b9190610c63565b915050919050565b8280548282559060005260206000209081019282156106dc579160200282015b828111156106db5782518260006101000a81548173ffffffffffffffffffffffffffffffffffffffff021916908373ffffffffffffffffffffffffffffffffffffffff16021790555091602001919060010190610683565b5b5090506106e991906106ed565b5090565b5b808211156107065760008160009055506001016106ee565b5090565b6000819050919050565b61071d8161070a565b82525050565b60006020820190506107386000830184610714565b92915050565b600073ffffffffffffffffffffffffffffffffffffffff82169050919050565b6000819050919050565b600061078361077e6107798461073e565b61075e565b61073e565b9050919050565b600061079582610768565b9050919050565b60006107a78261078a565b9050919050565b6107b78161079c565b82525050565b60006020820190506107d260008301846107ae565b92915050565b60006107e38261073e565b9050919050565b6107f3816107d8565b82525050565b600060208201905061080e60008301846107ea565b92915050565b600082825260208201905092915050565b7f4469646e27742053656e6420456e6f7567680000000000000000000000000000600082015250565b600061085b601283610814565b915061086682610825565b602082019050919050565b6000602082019050818103600083015261088a8161084e565b9050919050565b7f4e487b7100000000000000000000000000000000000000000000000000000000600052603260045260246000fd5b7f4e487b7100000000000000000000000000000000000000000000000000000000600052601160045260246000fd5b60006108fa8261070a565b91507fffffffffffffffffffffffffffffffffffffffffffffffffffffffffffffffff82141561092d5761092c6108c0565b5b600182019050919050565b7f4e487b7100000000000000000000000000000000000000000000000000000000600052604160045260246000fd5b7f4641494c00000000000000000000000000000000000000000000000000000000600082015250565b600061099d600483610814565b91506109a882610967565b602082019050919050565b600060208201905081810360008301526109cc81610990565b9050919050565b600081905092915050565b50565b60006109ee6000836109d3565b91506109f9826109de565b600082019050919050565b6000610a0f826109e1565b9150819050919050565b7f6661696c00000000000000000000000000000000000000000000000000000000600082015250565b6000610a4f600483610814565b9150610a5a82610a19565b602082019050919050565b60006020820190508181036000830152610a7e81610a42565b9050919050565b6000610a908261070a565b9150610a9b8361070a565b9250817fffffffffffffffffffffffffffffffffffffffffffffffffffffffffffffffff0483118215151615610ad457610ad36108c0565b5b828202905092915050565b7f4e487b7100000000000000000000000000000000000000000000000000000000600052601260045260246000fd5b6000610b198261070a565b9150610b248361070a565b925082610b3457610b33610adf565b5b828204905092915050565b600080fd5b600069ffffffffffffffffffff82169050919050565b610b6381610b44565b8114610b6e57600080fd5b50565b600081519050610b8081610b5a565b92915050565b6000819050919050565b610b9981610b86565b8114610ba457600080fd5b50565b600081519050610bb681610b90565b92915050565b610bc58161070a565b8114610bd057600080fd5b50565b600081519050610be281610bbc565b92915050565b600080600080600060a08688031215610c0457610c03610b3f565b5b6000610c1288828901610b71565b9550506020610c2388828901610ba7565b9450506040610c3488828901610bd3565b9350506060610c4588828901610bd3565b9250506080610c5688828901610b71565b9150509295509295909350565b6000610c6e82610b86565b9150610c7983610b86565b9250827f7fffffffffffffffffffffffffffffffffffffffffffffffffffffffffffffff0482116000841360008413161615610cb857610cb76108c0565b5b817f80000000000000000000000000000000000000000000000000000000000000000583126000841260008413161615610cf557610cf46108c0565b5b827f80000000000000000000000000000000000000000000000000000000000000000582126000841360008412161615610d3257610d316108c0565b5b827f7fffffffffffffffffffffffffffffffffffffffffffffffffffffffffffffff0582126000841260008412161615610d6f57610d6e6108c0565b5b82820290509291505056fea26469706673582212208b521c774c3610d76d5076c9c2aee4500fc5ce09f2c9d0bf27475b9ba38ff41a64736f6c63430008080033",
  "devdoc": {
    "kind": "dev",
    "methods": {},
    "version": 1
  },
  "userdoc": {
    "kind": "user",
    "methods": {},
    "version": 1
  },
  "storageLayout": {
    "storage": [
      {
        "astId": 61,
        "contract": "contracts/FundMe.sol:FundMe",
        "label": "Funders",
        "offset": 0,
        "slot": "0",
        "type": "t_array(t_address)dyn_storage"
      },
      {
        "astId": 65,
        "contract": "contracts/FundMe.sol:FundMe",
        "label": "addressToAmountFunded",
        "offset": 0,
        "slot": "1",
        "type": "t_mapping(t_address,t_uint256)"
      },
      {
        "astId": 70,
        "contract": "contracts/FundMe.sol:FundMe",
        "label": "priceFeed",
        "offset": 0,
        "slot": "2",
        "type": "t_contract(AggregatorV3Interface)45"
      }
    ],
    "types": {
      "t_address": {
        "encoding": "inplace",
        "label": "address",
        "numberOfBytes": "20"
      },
      "t_array(t_address)dyn_storage": {
        "base": "t_address",
        "encoding": "dynamic_array",
        "label": "address[]",
        "numberOfBytes": "32"
      },
      "t_contract(AggregatorV3Interface)45": {
        "encoding": "inplace",
        "label": "contract AggregatorV3Interface",
        "numberOfBytes": "20"
      },
      "t_mapping(t_address,t_uint256)": {
        "encoding": "mapping",
        "key": "t_address",
        "label": "mapping(address => uint256)",
        "numberOfBytes": "32",
        "value": "t_uint256"
      },
      "t_uint256": {
        "encoding": "inplace",
        "label": "uint256",
        "numberOfBytes": "32"
      }
    }
  }
}